{
  "_format": "hh-sol-artifact-1",
  "contractName": "Admin",
  "sourceName": "contracts/Admin.sol",
  "abi": [
    {
      "inputs": [],
      "stateMutability": "nonpayable",
      "type": "constructor"
    },
    {
      "inputs": [
        {
          "internalType": "address",
          "name": "_user",
          "type": "address"
        },
        {
          "internalType": "enum Auth.Role",
          "name": "_role",
          "type": "uint8"
        }
      ],
      "name": "approveUser",
      "outputs": [],
      "stateMutability": "nonpayable",
      "type": "function"
    },
    {
      "inputs": [],
      "name": "authContract",
      "outputs": [
        {
          "internalType": "contract Auth",
          "name": "",
          "type": "address"
        }
      ],
      "stateMutability": "view",
      "type": "function"
    },
    {
      "inputs": [
        {
          "internalType": "string",
          "name": "_name",
          "type": "string"
        },
        {
          "internalType": "string",
          "name": "_symbol",
          "type": "string"
        },
        {
          "internalType": "address",
          "name": "_leader",
          "type": "address"
        }
      ],
      "name": "createParty",
      "outputs": [],
      "stateMutability": "nonpayable",
      "type": "function"
    },
    {
      "inputs": [
        {
          "internalType": "address",
          "name": "_leader",
          "type": "address"
        }
      ],
      "name": "getParty",
      "outputs": [
        {
          "internalType": "string",
          "name": "name",
          "type": "string"
        },
        {
          "internalType": "string",
          "name": "symbol",
          "type": "string"
        },
        {
          "internalType": "address",
          "name": "leader",
          "type": "address"
        },
        {
          "internalType": "bool",
          "name": "exists",
          "type": "bool"
        }
      ],
      "stateMutability": "view",
      "type": "function"
    },
    {
      "inputs": [],
      "name": "owner",
      "outputs": [
        {
          "internalType": "address",
          "name": "",
          "type": "address"
        }
      ],
      "stateMutability": "view",
      "type": "function"
    },
    {
      "inputs": [
        {
          "internalType": "address",
          "name": "",
          "type": "address"
        }
      ],
      "name": "parties",
      "outputs": [
        {
          "internalType": "string",
          "name": "name",
          "type": "string"
        },
        {
          "internalType": "string",
          "name": "symbol",
          "type": "string"
        },
        {
          "internalType": "address",
          "name": "leader",
          "type": "address"
        },
        {
          "internalType": "bool",
          "name": "exists",
          "type": "bool"
        }
      ],
      "stateMutability": "view",
      "type": "function"
    },
    {
      "inputs": [
        {
          "internalType": "address",
          "name": "_user",
          "type": "address"
        }
      ],
      "name": "rejectUser",
      "outputs": [],
      "stateMutability": "nonpayable",
      "type": "function"
    },
    {
      "inputs": [
        {
          "internalType": "address",
          "name": "_authAddress",
          "type": "address"
        }
      ],
      "name": "setAuthContract",
      "outputs": [],
      "stateMutability": "nonpayable",
      "type": "function"
    }
  ],
  "bytecode": "0x608060405234801561001057600080fd5b50336000806101000a81548173ffffffffffffffffffffffffffffffffffffffff021916908373ffffffffffffffffffffffffffffffffffffffff160217905550611570806100606000396000f3fe608060405234801561001057600080fd5b50600436106100885760003560e01c80638da5cb5b1161005b5780638da5cb5b14610114578063b62367c914610132578063dae4cca014610150578063fb6f82431461016c57610088565b80634dc928851461008d5780634f235207146100a95780634f94a9be146100dc5780637a20bae6146100f8575b600080fd5b6100a760048036038101906100a29190610c18565b61019f565b005b6100c360048036038101906100be9190610c18565b6102bd565b6040516100d39493929190610cff565b60405180910390f35b6100f660048036038101906100f19190610d77565b61042a565b005b610112600480360381019061010d9190610c18565b61054b565b005b61011c61071d565b6040516101299190610db7565b60405180910390f35b61013a610741565b6040516101479190610e31565b60405180910390f35b61016a60048036038101906101659190610f81565b610767565b005b61018660048036038101906101819190610c18565b610999565b6040516101969493929190610cff565b60405180910390f35b60008054906101000a900473ffffffffffffffffffffffffffffffffffffffff1673ffffffffffffffffffffffffffffffffffffffff163373ffffffffffffffffffffffffffffffffffffffff161461022d576040517f08c379a000000000000000000000000000000000000000000000000000000000815260040161022490611058565b60405180910390fd5b600160009054906101000a900473ffffffffffffffffffffffffffffffffffffffff1673ffffffffffffffffffffffffffffffffffffffff16634dc92885826040518263ffffffff1660e01b81526004016102889190610db7565b600060405180830381600087803b1580156102a257600080fd5b505af11580156102b6573d6000803e3d6000fd5b5050505050565b60026020528060005260406000206000915090508060000180546102e0906110a7565b80601f016020809104026020016040519081016040528092919081815260200182805461030c906110a7565b80156103595780601f1061032e57610100808354040283529160200191610359565b820191906000526020600020905b81548152906001019060200180831161033c57829003601f168201915b50505050509080600101805461036e906110a7565b80601f016020809104026020016040519081016040528092919081815260200182805461039a906110a7565b80156103e75780601f106103bc576101008083540402835291602001916103e7565b820191906000526020600020905b8154815290600101906020018083116103ca57829003601f168201915b5050505050908060020160009054906101000a900473ffffffffffffffffffffffffffffffffffffffff16908060020160149054906101000a900460ff16905084565b60008054906101000a900473ffffffffffffffffffffffffffffffffffffffff1673ffffffffffffffffffffffffffffffffffffffff163373ffffffffffffffffffffffffffffffffffffffff16146104b8576040517f08c379a00000000000000000000000000000000000000000000000000000000081526004016104af90611058565b60405180910390fd5b600160009054906101000a900473ffffffffffffffffffffffffffffffffffffffff1673ffffffffffffffffffffffffffffffffffffffff16634f94a9be83836040518363ffffffff1660e01b815260040161051592919061114f565b600060405180830381600087803b15801561052f57600080fd5b505af1158015610543573d6000803e3d6000fd5b505050505050565b60008054906101000a900473ffffffffffffffffffffffffffffffffffffffff1673ffffffffffffffffffffffffffffffffffffffff163373ffffffffffffffffffffffffffffffffffffffff16146105d9576040517f08c379a00000000000000000000000000000000000000000000000000000000081526004016105d090611058565b60405180910390fd5b600073ffffffffffffffffffffffffffffffffffffffff16600160009054906101000a900473ffffffffffffffffffffffffffffffffffffffff1673ffffffffffffffffffffffffffffffffffffffff161461066a576040517f08c379a0000000000000000000000000000000000000000000000000000000008152600401610661906111c4565b60405180910390fd5b600073ffffffffffffffffffffffffffffffffffffffff168173ffffffffffffffffffffffffffffffffffffffff16036106d9576040517f08c379a00000000000000000000000000000000000000000000000000000000081526004016106d090611230565b60405180910390fd5b80600160006101000a81548173ffffffffffffffffffffffffffffffffffffffff021916908373ffffffffffffffffffffffffffffffffffffffff16021790555050565b60008054906101000a900473ffffffffffffffffffffffffffffffffffffffff1681565b600160009054906101000a900473ffffffffffffffffffffffffffffffffffffffff1681565b60008054906101000a900473ffffffffffffffffffffffffffffffffffffffff1673ffffffffffffffffffffffffffffffffffffffff163373ffffffffffffffffffffffffffffffffffffffff16146107f5576040517f08c379a00000000000000000000000000000000000000000000000000000000081526004016107ec90611058565b60405180910390fd5b600260008273ffffffffffffffffffffffffffffffffffffffff1673ffffffffffffffffffffffffffffffffffffffff16815260200190815260200160002060020160149054906101000a900460ff1615610885576040517f08c379a000000000000000000000000000000000000000000000000000000000815260040161087c9061129c565b60405180910390fd5b60405180608001604052808481526020018381526020018273ffffffffffffffffffffffffffffffffffffffff16815260200160011515815250600260008373ffffffffffffffffffffffffffffffffffffffff1673ffffffffffffffffffffffffffffffffffffffff16815260200190815260200160002060008201518160000190816109139190611468565b5060208201518160010190816109299190611468565b5060408201518160020160006101000a81548173ffffffffffffffffffffffffffffffffffffffff021916908373ffffffffffffffffffffffffffffffffffffffff16021790555060608201518160020160146101000a81548160ff021916908315150217905550905050505050565b6060806000806000600260008773ffffffffffffffffffffffffffffffffffffffff1673ffffffffffffffffffffffffffffffffffffffff1681526020019081526020016000206040518060800160405290816000820180546109fb906110a7565b80601f0160208091040260200160405190810160405280929190818152602001828054610a27906110a7565b8015610a745780601f10610a4957610100808354040283529160200191610a74565b820191906000526020600020905b815481529060010190602001808311610a5757829003601f168201915b50505050508152602001600182018054610a8d906110a7565b80601f0160208091040260200160405190810160405280929190818152602001828054610ab9906110a7565b8015610b065780601f10610adb57610100808354040283529160200191610b06565b820191906000526020600020905b815481529060010190602001808311610ae957829003601f168201915b505050505081526020016002820160009054906101000a900473ffffffffffffffffffffffffffffffffffffffff1673ffffffffffffffffffffffffffffffffffffffff1673ffffffffffffffffffffffffffffffffffffffff1681526020016002820160149054906101000a900460ff161515151581525050905080600001518160200151826040015183606001519450945094509450509193509193565b6000604051905090565b600080fd5b600080fd5b600073ffffffffffffffffffffffffffffffffffffffff82169050919050565b6000610be582610bba565b9050919050565b610bf581610bda565b8114610c0057600080fd5b50565b600081359050610c1281610bec565b92915050565b600060208284031215610c2e57610c2d610bb0565b5b6000610c3c84828501610c03565b91505092915050565b600081519050919050565b600082825260208201905092915050565b60005b83811015610c7f578082015181840152602081019050610c64565b60008484015250505050565b6000601f19601f8301169050919050565b6000610ca782610c45565b610cb18185610c50565b9350610cc1818560208601610c61565b610cca81610c8b565b840191505092915050565b610cde81610bda565b82525050565b60008115159050919050565b610cf981610ce4565b82525050565b60006080820190508181036000830152610d198187610c9c565b90508181036020830152610d2d8186610c9c565b9050610d3c6040830185610cd5565b610d496060830184610cf0565b95945050505050565b60038110610d5f57600080fd5b50565b600081359050610d7181610d52565b92915050565b60008060408385031215610d8e57610d8d610bb0565b5b6000610d9c85828601610c03565b9250506020610dad85828601610d62565b9150509250929050565b6000602082019050610dcc6000830184610cd5565b92915050565b6000819050919050565b6000610df7610df2610ded84610bba565b610dd2565b610bba565b9050919050565b6000610e0982610ddc565b9050919050565b6000610e1b82610dfe565b9050919050565b610e2b81610e10565b82525050565b6000602082019050610e466000830184610e22565b92915050565b600080fd5b600080fd5b7f4e487b7100000000000000000000000000000000000000000000000000000000600052604160045260246000fd5b610e8e82610c8b565b810181811067ffffffffffffffff82111715610ead57610eac610e56565b5b80604052505050565b6000610ec0610ba6565b9050610ecc8282610e85565b919050565b600067ffffffffffffffff821115610eec57610eeb610e56565b5b610ef582610c8b565b9050602081019050919050565b82818337600083830152505050565b6000610f24610f1f84610ed1565b610eb6565b905082815260208101848484011115610f4057610f3f610e51565b5b610f4b848285610f02565b509392505050565b600082601f830112610f6857610f67610e4c565b5b8135610f78848260208601610f11565b91505092915050565b600080600060608486031215610f9a57610f99610bb0565b5b600084013567ffffffffffffffff811115610fb857610fb7610bb5565b5b610fc486828701610f53565b935050602084013567ffffffffffffffff811115610fe557610fe4610bb5565b5b610ff186828701610f53565b925050604061100286828701610c03565b9150509250925092565b7f4e6f7420617574686f72697a6564000000000000000000000000000000000000600082015250565b6000611042600e83610c50565b915061104d8261100c565b602082019050919050565b6000602082019050818103600083015261107181611035565b9050919050565b7f4e487b7100000000000000000000000000000000000000000000000000000000600052602260045260246000fd5b600060028204905060018216806110bf57607f821691505b6020821081036110d2576110d1611078565b5b50919050565b7f4e487b7100000000000000000000000000000000000000000000000000000000600052602160045260246000fd5b60038110611118576111176110d8565b5b50565b600081905061112982611107565b919050565b60006111398261111b565b9050919050565b6111498161112e565b82525050565b60006040820190506111646000830185610cd5565b6111716020830184611140565b9392505050565b7f4175746820636f6e747261637420616c72656164792073657400000000000000600082015250565b60006111ae601983610c50565b91506111b982611178565b602082019050919050565b600060208201905081810360008301526111dd816111a1565b9050919050565b7f496e76616c6964206175746820636f6e74726163742061646472657373000000600082015250565b600061121a601d83610c50565b9150611225826111e4565b602082019050919050565b600060208201905081810360008301526112498161120d565b9050919050565b7f5061727479206c656164657220616c7265616479206861732061207061727479600082015250565b6000611286602083610c50565b915061129182611250565b602082019050919050565b600060208201905081810360008301526112b581611279565b9050919050565b60008190508160005260206000209050919050565b60006020601f8301049050919050565b600082821b905092915050565b60006008830261131e7fffffffffffffffffffffffffffffffffffffffffffffffffffffffffffffffff826112e1565b61132886836112e1565b95508019841693508086168417925050509392505050565b6000819050919050565b600061136561136061135b84611340565b610dd2565b611340565b9050919050565b6000819050919050565b61137f8361134a565b61139361138b8261136c565b8484546112ee565b825550505050565b600090565b6113a861139b565b6113b3818484611376565b505050565b5b818110156113d7576113cc6000826113a0565b6001810190506113b9565b5050565b601f82111561141c576113ed816112bc565b6113f6846112d1565b81016020851015611405578190505b611419611411856112d1565b8301826113b8565b50505b505050565b600082821c905092915050565b600061143f60001984600802611421565b1980831691505092915050565b6000611458838361142e565b9150826002028217905092915050565b61147182610c45565b67ffffffffffffffff81111561148a57611489610e56565b5b61149482546110a7565b61149f8282856113db565b600060209050601f8311600181146114d257600084156114c0578287015190505b6114ca858261144c565b865550611532565b601f1984166114e0866112bc565b60005b82811015611508578489015182556001820191506020850194506020810190506114e3565b868310156115255784890151611521601f89168261142e565b8355505b6001600288020188555050505b50505050505056fea2646970667358221220f5929e94a06348f21cdf0ceb0946a081246b979025f1bec787d1eb2382fc8b0d64736f6c63430008140033",
  "linkReferences": {},
  "deployedLinkReferences": {}
}