{
  "_format": "hh-sol-artifact-1",
  "contractName": "Auth",
  "sourceName": "contracts/Auth.sol",
  "abi": [
    {
      "inputs": [],
      "stateMutability": "nonpayable",
      "type": "constructor"
    },
    {
      "inputs": [],
      "name": "adminContract",
      "outputs": [
        {
          "internalType": "address",
          "name": "",
          "type": "address"
        }
      ],
      "stateMutability": "view",
      "type": "function"
    },
    {
      "inputs": [
        {
          "internalType": "address",
          "name": "_user",
          "type": "address"
        },
        {
          "internalType": "enum Auth.Role",
          "name": "_role",
          "type": "uint8"
        }
      ],
      "name": "approveUser",
      "outputs": [],
      "stateMutability": "nonpayable",
      "type": "function"
    },
    {
      "inputs": [
        {
          "internalType": "address",
          "name": "_user",
          "type": "address"
        }
      ],
      "name": "getUser",
      "outputs": [
        {
          "internalType": "string",
          "name": "fullName",
          "type": "string"
        },
        {
          "internalType": "string",
          "name": "profileURL",
          "type": "string"
        },
        {
          "internalType": "enum Auth.Role",
          "name": "role",
          "type": "uint8"
        },
        {
          "internalType": "enum Auth.Status",
          "name": "status",
          "type": "uint8"
        },
        {
          "internalType": "bool",
          "name": "isRegistered",
          "type": "bool"
        }
      ],
      "stateMutability": "view",
      "type": "function"
    },
    {
      "inputs": [
        {
          "internalType": "string",
          "name": "_fullName",
          "type": "string"
        },
        {
          "internalType": "string",
          "name": "_profileURL",
          "type": "string"
        }
      ],
      "name": "register",
      "outputs": [],
      "stateMutability": "nonpayable",
      "type": "function"
    },
    {
      "inputs": [
        {
          "internalType": "address",
          "name": "_user",
          "type": "address"
        }
      ],
      "name": "rejectUser",
      "outputs": [],
      "stateMutability": "nonpayable",
      "type": "function"
    },
    {
      "inputs": [
        {
          "internalType": "address",
          "name": "_adminContract",
          "type": "address"
        }
      ],
      "name": "setAdminContract",
      "outputs": [],
      "stateMutability": "nonpayable",
      "type": "function"
    },
    {
      "inputs": [
        {
          "internalType": "address",
          "name": "",
          "type": "address"
        }
      ],
      "name": "users",
      "outputs": [
        {
          "internalType": "string",
          "name": "fullName",
          "type": "string"
        },
        {
          "internalType": "string",
          "name": "profileURL",
          "type": "string"
        },
        {
          "internalType": "enum Auth.Role",
          "name": "role",
          "type": "uint8"
        },
        {
          "internalType": "enum Auth.Status",
          "name": "status",
          "type": "uint8"
        },
        {
          "internalType": "bool",
          "name": "isRegistered",
          "type": "bool"
        }
      ],
      "stateMutability": "view",
      "type": "function"
    }
  ],
  "bytecode": "0x608060405234801561001057600080fd5b506115b5806100206000396000f3fe608060405234801561001057600080fd5b506004361061007d5760003560e01c806363a812f91161005b57806363a812f9146100d65780636f77926b146100f2578063a87430ba14610126578063c05c5e941461015a5761007d565b80633ffbd47f146100825780634dc928851461009e5780634f94a9be146100ba575b600080fd5b61009c60048036038101906100979190610d2f565b610178565b005b6100b860048036038101906100b39190610e05565b610348565b005b6100d460048036038101906100cf9190610e57565b6104d3565b005b6100f060048036038101906100eb9190610e05565b6106c8565b005b61010c60048036038101906101079190610e05565b61080c565b60405161011d959493929190610ff0565b60405180910390f35b610140600480360381019061013b9190610e05565b610a42565b604051610151959493929190610ff0565b60405180910390f35b610162610baf565b60405161016f9190611060565b60405180910390f35b6000803373ffffffffffffffffffffffffffffffffffffffff1673ffffffffffffffffffffffffffffffffffffffff16815260200190815260200160002060020160029054906101000a900460ff1615610207576040517f08c379a00000000000000000000000000000000000000000000000000000000081526004016101fe906110c7565b60405180910390fd5b6040518060a001604052808381526020018281526020016000600281111561023257610231610f16565b5b81526020016000600281111561024b5761024a610f16565b5b8152602001600115158152506000803373ffffffffffffffffffffffffffffffffffffffff1673ffffffffffffffffffffffffffffffffffffffff16815260200190815260200160002060008201518160000190816102aa91906112fd565b5060208201518160010190816102c091906112fd565b5060408201518160020160006101000a81548160ff021916908360028111156102ec576102eb610f16565b5b021790555060608201518160020160016101000a81548160ff0219169083600281111561031c5761031b610f16565b5b021790555060808201518160020160026101000a81548160ff0219169083151502179055509050505050565b600160009054906101000a900473ffffffffffffffffffffffffffffffffffffffff1673ffffffffffffffffffffffffffffffffffffffff163373ffffffffffffffffffffffffffffffffffffffff16146103d8576040517f08c379a00000000000000000000000000000000000000000000000000000000081526004016103cf9061141b565b60405180910390fd5b6000808273ffffffffffffffffffffffffffffffffffffffff1673ffffffffffffffffffffffffffffffffffffffff16815260200190815260200160002060020160029054906101000a900460ff16610466576040517f08c379a000000000000000000000000000000000000000000000000000000000815260040161045d90611487565b60405180910390fd5b60026000808373ffffffffffffffffffffffffffffffffffffffff1673ffffffffffffffffffffffffffffffffffffffff16815260200190815260200160002060020160016101000a81548160ff021916908360028111156104cb576104ca610f16565b5b021790555050565b600160009054906101000a900473ffffffffffffffffffffffffffffffffffffffff1673ffffffffffffffffffffffffffffffffffffffff163373ffffffffffffffffffffffffffffffffffffffff1614610563576040517f08c379a000000000000000000000000000000000000000000000000000000000815260040161055a9061141b565b60405180910390fd5b6000808373ffffffffffffffffffffffffffffffffffffffff1673ffffffffffffffffffffffffffffffffffffffff16815260200190815260200160002060020160029054906101000a900460ff166105f1576040517f08c379a00000000000000000000000000000000000000000000000000000000081526004016105e890611487565b60405180910390fd5b60016000808473ffffffffffffffffffffffffffffffffffffffff1673ffffffffffffffffffffffffffffffffffffffff16815260200190815260200160002060020160016101000a81548160ff0219169083600281111561065657610655610f16565b5b0217905550806000808473ffffffffffffffffffffffffffffffffffffffff1673ffffffffffffffffffffffffffffffffffffffff16815260200190815260200160002060020160006101000a81548160ff021916908360028111156106bf576106be610f16565b5b02179055505050565b600073ffffffffffffffffffffffffffffffffffffffff16600160009054906101000a900473ffffffffffffffffffffffffffffffffffffffff1673ffffffffffffffffffffffffffffffffffffffff1614610759576040517f08c379a0000000000000000000000000000000000000000000000000000000008152600401610750906114f3565b60405180910390fd5b600073ffffffffffffffffffffffffffffffffffffffff168173ffffffffffffffffffffffffffffffffffffffff16036107c8576040517f08c379a00000000000000000000000000000000000000000000000000000000081526004016107bf9061155f565b60405180910390fd5b80600160006101000a81548173ffffffffffffffffffffffffffffffffffffffff021916908373ffffffffffffffffffffffffffffffffffffffff16021790555050565b6060806000806000806000808873ffffffffffffffffffffffffffffffffffffffff1673ffffffffffffffffffffffffffffffffffffffff1681526020019081526020016000206040518060a001604052908160008201805461086e90611116565b80601f016020809104026020016040519081016040528092919081815260200182805461089a90611116565b80156108e75780601f106108bc576101008083540402835291602001916108e7565b820191906000526020600020905b8154815290600101906020018083116108ca57829003601f168201915b5050505050815260200160018201805461090090611116565b80601f016020809104026020016040519081016040528092919081815260200182805461092c90611116565b80156109795780601f1061094e57610100808354040283529160200191610979565b820191906000526020600020905b81548152906001019060200180831161095c57829003601f168201915b505050505081526020016002820160009054906101000a900460ff1660028111156109a7576109a6610f16565b5b60028111156109b9576109b8610f16565b5b81526020016002820160019054906101000a900460ff1660028111156109e2576109e1610f16565b5b60028111156109f4576109f3610f16565b5b81526020016002820160029054906101000a900460ff161515151581525050905080600001518160200151826040015183606001518460800151955095509550955095505091939590929450565b6000602052806000526040600020600091509050806000018054610a6590611116565b80601f0160208091040260200160405190810160405280929190818152602001828054610a9190611116565b8015610ade5780601f10610ab357610100808354040283529160200191610ade565b820191906000526020600020905b815481529060010190602001808311610ac157829003601f168201915b505050505090806001018054610af390611116565b80601f0160208091040260200160405190810160405280929190818152602001828054610b1f90611116565b8015610b6c5780601f10610b4157610100808354040283529160200191610b6c565b820191906000526020600020905b815481529060010190602001808311610b4f57829003601f168201915b5050505050908060020160009054906101000a900460ff16908060020160019054906101000a900460ff16908060020160029054906101000a900460ff16905085565b600160009054906101000a900473ffffffffffffffffffffffffffffffffffffffff1681565b6000604051905090565b600080fd5b600080fd5b600080fd5b600080fd5b6000601f19601f8301169050919050565b7f4e487b7100000000000000000000000000000000000000000000000000000000600052604160045260246000fd5b610c3c82610bf3565b810181811067ffffffffffffffff82111715610c5b57610c5a610c04565b5b80604052505050565b6000610c6e610bd5565b9050610c7a8282610c33565b919050565b600067ffffffffffffffff821115610c9a57610c99610c04565b5b610ca382610bf3565b9050602081019050919050565b82818337600083830152505050565b6000610cd2610ccd84610c7f565b610c64565b905082815260208101848484011115610cee57610ced610bee565b5b610cf9848285610cb0565b509392505050565b600082601f830112610d1657610d15610be9565b5b8135610d26848260208601610cbf565b91505092915050565b60008060408385031215610d4657610d45610bdf565b5b600083013567ffffffffffffffff811115610d6457610d63610be4565b5b610d7085828601610d01565b925050602083013567ffffffffffffffff811115610d9157610d90610be4565b5b610d9d85828601610d01565b9150509250929050565b600073ffffffffffffffffffffffffffffffffffffffff82169050919050565b6000610dd282610da7565b9050919050565b610de281610dc7565b8114610ded57600080fd5b50565b600081359050610dff81610dd9565b92915050565b600060208284031215610e1b57610e1a610bdf565b5b6000610e2984828501610df0565b91505092915050565b60038110610e3f57600080fd5b50565b600081359050610e5181610e32565b92915050565b60008060408385031215610e6e57610e6d610bdf565b5b6000610e7c85828601610df0565b9250506020610e8d85828601610e42565b9150509250929050565b600081519050919050565b600082825260208201905092915050565b60005b83811015610ed1578082015181840152602081019050610eb6565b60008484015250505050565b6000610ee882610e97565b610ef28185610ea2565b9350610f02818560208601610eb3565b610f0b81610bf3565b840191505092915050565b7f4e487b7100000000000000000000000000000000000000000000000000000000600052602160045260246000fd5b60038110610f5657610f55610f16565b5b50565b6000819050610f6782610f45565b919050565b6000610f7782610f59565b9050919050565b610f8781610f6c565b82525050565b60038110610f9e57610f9d610f16565b5b50565b6000819050610faf82610f8d565b919050565b6000610fbf82610fa1565b9050919050565b610fcf81610fb4565b82525050565b60008115159050919050565b610fea81610fd5565b82525050565b600060a082019050818103600083015261100a8188610edd565b9050818103602083015261101e8187610edd565b905061102d6040830186610f7e565b61103a6060830185610fc6565b6110476080830184610fe1565b9695505050505050565b61105a81610dc7565b82525050565b60006020820190506110756000830184611051565b92915050565b7f416c726561647920726567697374657265640000000000000000000000000000600082015250565b60006110b1601283610ea2565b91506110bc8261107b565b602082019050919050565b600060208201905081810360008301526110e0816110a4565b9050919050565b7f4e487b7100000000000000000000000000000000000000000000000000000000600052602260045260246000fd5b6000600282049050600182168061112e57607f821691505b602082108103611141576111406110e7565b5b50919050565b60008190508160005260206000209050919050565b60006020601f8301049050919050565b600082821b905092915050565b6000600883026111a97fffffffffffffffffffffffffffffffffffffffffffffffffffffffffffffffff8261116c565b6111b3868361116c565b95508019841693508086168417925050509392505050565b6000819050919050565b6000819050919050565b60006111fa6111f56111f0846111cb565b6111d5565b6111cb565b9050919050565b6000819050919050565b611214836111df565b61122861122082611201565b848454611179565b825550505050565b600090565b61123d611230565b61124881848461120b565b505050565b5b8181101561126c57611261600082611235565b60018101905061124e565b5050565b601f8211156112b15761128281611147565b61128b8461115c565b8101602085101561129a578190505b6112ae6112a68561115c565b83018261124d565b50505b505050565b600082821c905092915050565b60006112d4600019846008026112b6565b1980831691505092915050565b60006112ed83836112c3565b9150826002028217905092915050565b61130682610e97565b67ffffffffffffffff81111561131f5761131e610c04565b5b6113298254611116565b611334828285611270565b600060209050601f8311600181146113675760008415611355578287015190505b61135f85826112e1565b8655506113c7565b601f19841661137586611147565b60005b8281101561139d57848901518255600182019150602085019450602081019050611378565b868310156113ba57848901516113b6601f8916826112c3565b8355505b6001600288020188555050505b505050505050565b7f4f6e6c792061646d696e20636f6e74726163742063616e2063616c6c00000000600082015250565b6000611405601c83610ea2565b9150611410826113cf565b602082019050919050565b60006020820190508181036000830152611434816113f8565b9050919050565b7f55736572206e6f7420666f756e64000000000000000000000000000000000000600082015250565b6000611471600e83610ea2565b915061147c8261143b565b602082019050919050565b600060208201905081810360008301526114a081611464565b9050919050565b7f41646d696e20636f6e747261637420616c726561647920736574000000000000600082015250565b60006114dd601a83610ea2565b91506114e8826114a7565b602082019050919050565b6000602082019050818103600083015261150c816114d0565b9050919050565b7f496e76616c69642061646d696e20636f6e747261637420616464726573730000600082015250565b6000611549601e83610ea2565b915061155482611513565b602082019050919050565b600060208201905081810360008301526115788161153c565b905091905056fea2646970667358221220117889f8f83d97cb8dc459add0cbf8fac58706c97d0b59cca8febc3f387aa7c664736f6c63430008140033",
  "linkReferences": {},
  "deployedLinkReferences": {}
}