{
  "_format": "hh-sol-artifact-1",
  "contractName": "ElectionContract",
  "sourceName": "contracts/Election.sol",
  "abi": [
    {
      "inputs": [],
      "stateMutability": "nonpayable",
      "type": "constructor"
    },
    {
      "anonymous": false,
      "inputs": [
        {
          "indexed": true,
          "internalType": "address",
          "name": "oldAdmin",
          "type": "address"
        },
        {
          "indexed": true,
          "internalType": "address",
          "name": "newAdmin",
          "type": "address"
        }
      ],
      "name": "AdminTransferred",
      "type": "event"
    },
    {
      "anonymous": false,
      "inputs": [
        {
          "indexed": true,
          "internalType": "uint256",
          "name": "electionId",
          "type": "uint256"
        },
        {
          "indexed": false,
          "internalType": "address",
          "name": "candidate",
          "type": "address"
        }
      ],
      "name": "CandidateAdded",
      "type": "event"
    },
    {
      "anonymous": false,
      "inputs": [
        {
          "indexed": true,
          "internalType": "uint256",
          "name": "electionId",
          "type": "uint256"
        },
        {
          "indexed": false,
          "internalType": "string",
          "name": "title",
          "type": "string"
        }
      ],
      "name": "ElectionCreated",
      "type": "event"
    },
    {
      "anonymous": false,
      "inputs": [
        {
          "indexed": true,
          "internalType": "uint256",
          "name": "electionId",
          "type": "uint256"
        },
        {
          "indexed": false,
          "internalType": "address",
          "name": "winner",
          "type": "address"
        }
      ],
      "name": "ResultDeclared",
      "type": "event"
    },
    {
      "anonymous": false,
      "inputs": [
        {
          "indexed": true,
          "internalType": "uint256",
          "name": "electionId",
          "type": "uint256"
        },
        {
          "indexed": false,
          "internalType": "address",
          "name": "voter",
          "type": "address"
        },
        {
          "indexed": false,
          "internalType": "address",
          "name": "candidate",
          "type": "address"
        }
      ],
      "name": "VoteCast",
      "type": "event"
    },
    {
      "inputs": [
        {
          "internalType": "uint256",
          "name": "_electionId",
          "type": "uint256"
        },
        {
          "internalType": "address",
          "name": "_candidate",
          "type": "address"
        }
      ],
      "name": "addCandidate",
      "outputs": [],
      "stateMutability": "nonpayable",
      "type": "function"
    },
    {
      "inputs": [],
      "name": "admin",
      "outputs": [
        {
          "internalType": "address",
          "name": "",
          "type": "address"
        }
      ],
      "stateMutability": "view",
      "type": "function"
    },
    {
      "inputs": [
        {
          "internalType": "string",
          "name": "_title",
          "type": "string"
        },
        {
          "internalType": "string",
          "name": "_purpose",
          "type": "string"
        },
        {
          "internalType": "uint256",
          "name": "_startDate",
          "type": "uint256"
        },
        {
          "internalType": "uint256",
          "name": "_endDate",
          "type": "uint256"
        },
        {
          "internalType": "enum ElectionContract.ElectionType",
          "name": "_type",
          "type": "uint8"
        },
        {
          "internalType": "enum ElectionContract.ElectionLevel",
          "name": "_level",
          "type": "uint8"
        },
        {
          "internalType": "uint256",
          "name": "_constituencyId",
          "type": "uint256"
        }
      ],
      "name": "createElection",
      "outputs": [
        {
          "internalType": "uint256",
          "name": "",
          "type": "uint256"
        }
      ],
      "stateMutability": "nonpayable",
      "type": "function"
    },
    {
      "inputs": [
        {
          "internalType": "uint256",
          "name": "_electionId",
          "type": "uint256"
        }
      ],
      "name": "declareResult",
      "outputs": [],
      "stateMutability": "nonpayable",
      "type": "function"
    },
    {
      "inputs": [],
      "name": "electionCount",
      "outputs": [
        {
          "internalType": "uint256",
          "name": "",
          "type": "uint256"
        }
      ],
      "stateMutability": "view",
      "type": "function"
    },
    {
      "inputs": [],
      "name": "getAdmin",
      "outputs": [
        {
          "internalType": "address",
          "name": "",
          "type": "address"
        }
      ],
      "stateMutability": "view",
      "type": "function"
    },
    {
      "inputs": [
        {
          "internalType": "uint256",
          "name": "_electionId",
          "type": "uint256"
        }
      ],
      "name": "getBasicElectionInfo",
      "outputs": [
        {
          "internalType": "string",
          "name": "title",
          "type": "string"
        },
        {
          "internalType": "string",
          "name": "purpose",
          "type": "string"
        },
        {
          "internalType": "uint256",
          "name": "startDate",
          "type": "uint256"
        },
        {
          "internalType": "uint256",
          "name": "endDate",
          "type": "uint256"
        },
        {
          "internalType": "enum ElectionContract.ElectionType",
          "name": "electionType",
          "type": "uint8"
        },
        {
          "internalType": "enum ElectionContract.ElectionLevel",
          "name": "level",
          "type": "uint8"
        },
        {
          "internalType": "uint256",
          "name": "constituencyId",
          "type": "uint256"
        },
        {
          "internalType": "enum ElectionContract.ElectionStatus",
          "name": "status",
          "type": "uint8"
        },
        {
          "internalType": "bool",
          "name": "resultDeclared",
          "type": "bool"
        },
        {
          "internalType": "address",
          "name": "winner",
          "type": "address"
        },
        {
          "internalType": "uint256",
          "name": "candidateCount",
          "type": "uint256"
        }
      ],
      "stateMutability": "view",
      "type": "function"
    },
    {
      "inputs": [
        {
          "internalType": "uint256",
          "name": "_electionId",
          "type": "uint256"
        },
        {
          "internalType": "uint256",
          "name": "index",
          "type": "uint256"
        }
      ],
      "name": "getCandidateByIndex",
      "outputs": [
        {
          "internalType": "address",
          "name": "candidateAddress",
          "type": "address"
        },
        {
          "internalType": "uint256",
          "name": "voteCount",
          "type": "uint256"
        },
        {
          "internalType": "bool",
          "name": "isRegistered",
          "type": "bool"
        }
      ],
      "stateMutability": "view",
      "type": "function"
    },
    {
      "inputs": [
        {
          "internalType": "address",
          "name": "newAdmin",
          "type": "address"
        }
      ],
      "name": "transferAdmin",
      "outputs": [],
      "stateMutability": "nonpayable",
      "type": "function"
    },
    {
      "inputs": [
        {
          "internalType": "uint256",
          "name": "_electionId",
          "type": "uint256"
        },
        {
          "internalType": "address",
          "name": "_candidate",
          "type": "address"
        }
      ],
      "name": "vote",
      "outputs": [],
      "stateMutability": "nonpayable",
      "type": "function"
    }
  ],
  "bytecode": "0x608060405234801561001057600080fd5b50336000806101000a81548173ffffffffffffffffffffffffffffffffffffffff021916908373ffffffffffffffffffffffffffffffffffffffff1602179055506120ed806100606000396000f3fe608060405234801561001057600080fd5b506004361061009e5760003560e01c806376ea837f1161006657806376ea837f14610147578063997d2830146101635780639eea6ae814610181578063ba064464146101bb578063f851a440146101eb5761009e565b806302d947ef146100a357806322e76881146100bf57806333c57ccd146100f15780636e9960c31461010d57806375829def1461012b575b600080fd5b6100bd60048036038101906100b89190611253565b610209565b005b6100d960048036038101906100d49190611293565b61048c565b6040516100e89392919061130c565b60405180910390f35b61010b60048036038101906101069190611253565b6105a2565b005b610115610865565b6040516101229190611343565b60405180910390f35b6101456004803603810190610140919061135e565b61088e565b005b610161600480360381019061015c919061138b565b610a4f565b005b61016b610d60565b60405161017891906113b8565b60405180910390f35b61019b6004803603810190610196919061138b565b610d66565b6040516101b29b9a9998979695949392919061156a565b60405180910390f35b6101d560048036038101906101d091906117a2565b610f57565b6040516101e291906113b8565b60405180910390f35b6101f3611187565b6040516102009190611343565b60405180910390f35b600060026000848152602001908152602001600020905080600201544210158015610238575080600301544211155b610277576040517f08c379a000000000000000000000000000000000000000000000000000000000815260040161026e906118c8565b60405180910390fd5b8060090160003373ffffffffffffffffffffffffffffffffffffffff1673ffffffffffffffffffffffffffffffffffffffff16815260200190815260200160002060009054906101000a900460ff1615610306576040517f08c379a00000000000000000000000000000000000000000000000000000000081526004016102fd90611934565b60405180910390fd5b8060080160008373ffffffffffffffffffffffffffffffffffffffff1673ffffffffffffffffffffffffffffffffffffffff16815260200190815260200160002060020160009054906101000a900460ff16610397576040517f08c379a000000000000000000000000000000000000000000000000000000000815260040161038e906119a0565b60405180910390fd5b60018160080160008473ffffffffffffffffffffffffffffffffffffffff1673ffffffffffffffffffffffffffffffffffffffff16815260200190815260200160002060010160008282546103ec91906119ef565b9250508190555060018160090160003373ffffffffffffffffffffffffffffffffffffffff1673ffffffffffffffffffffffffffffffffffffffff16815260200190815260200160002060006101000a81548160ff021916908315150217905550827fcfff1651bcea794952a516ce970ab17518a85210bd939aaeaac670a8d3e65ec7338460405161047f929190611a23565b60405180910390a2505050565b600080600080600260008781526020019081526020016000209050806007018054905085106104f0576040517f08c379a00000000000000000000000000000000000000000000000000000000081526004016104e790611a98565b60405180910390fd5b600081600701868154811061050857610507611ab8565b5b9060005260206000200160009054906101000a900473ffffffffffffffffffffffffffffffffffffffff16905060008260080160008373ffffffffffffffffffffffffffffffffffffffff1673ffffffffffffffffffffffffffffffffffffffff16815260200190815260200160002090508181600101548260020160009054906101000a900460ff169550955095505050509250925092565b60008054906101000a900473ffffffffffffffffffffffffffffffffffffffff1673ffffffffffffffffffffffffffffffffffffffff163373ffffffffffffffffffffffffffffffffffffffff1614610630576040517f08c379a000000000000000000000000000000000000000000000000000000000815260040161062790611b33565b60405180910390fd5b60006002600084815260200190815260200160002090508060080160008373ffffffffffffffffffffffffffffffffffffffff1673ffffffffffffffffffffffffffffffffffffffff16815260200190815260200160002060020160009054906101000a900460ff16156106d9576040517f08c379a00000000000000000000000000000000000000000000000000000000081526004016106d090611b9f565b60405180910390fd5b60405180606001604052808373ffffffffffffffffffffffffffffffffffffffff16815260200160008152602001600115158152508160080160008473ffffffffffffffffffffffffffffffffffffffff1673ffffffffffffffffffffffffffffffffffffffff16815260200190815260200160002060008201518160000160006101000a81548173ffffffffffffffffffffffffffffffffffffffff021916908373ffffffffffffffffffffffffffffffffffffffff1602179055506020820151816001015560408201518160020160006101000a81548160ff02191690831515021790555090505080600701829080600181540180825580915050600190039060005260206000200160009091909190916101000a81548173ffffffffffffffffffffffffffffffffffffffff021916908373ffffffffffffffffffffffffffffffffffffffff160217905550827fae67715e53b8e1ee028f0b9cddbc208be7d0889701d1ba0ec4414baeaf37b2eb836040516108589190611343565b60405180910390a2505050565b60008060009054906101000a900473ffffffffffffffffffffffffffffffffffffffff16905090565b60008054906101000a900473ffffffffffffffffffffffffffffffffffffffff1673ffffffffffffffffffffffffffffffffffffffff163373ffffffffffffffffffffffffffffffffffffffff161461091c576040517f08c379a000000000000000000000000000000000000000000000000000000000815260040161091390611b33565b60405180910390fd5b600073ffffffffffffffffffffffffffffffffffffffff168173ffffffffffffffffffffffffffffffffffffffff160361098b576040517f08c379a000000000000000000000000000000000000000000000000000000000815260040161098290611c0b565b60405180910390fd5b60008060009054906101000a900473ffffffffffffffffffffffffffffffffffffffff169050816000806101000a81548173ffffffffffffffffffffffffffffffffffffffff021916908373ffffffffffffffffffffffffffffffffffffffff1602179055508173ffffffffffffffffffffffffffffffffffffffff168173ffffffffffffffffffffffffffffffffffffffff167ff8ccb027dfcd135e000e9d45e6cc2d662578a8825d4c45b5e32e0adf67e79ec660405160405180910390a35050565b60008054906101000a900473ffffffffffffffffffffffffffffffffffffffff1673ffffffffffffffffffffffffffffffffffffffff163373ffffffffffffffffffffffffffffffffffffffff1614610add576040517f08c379a0000000000000000000000000000000000000000000000000000000008152600401610ad490611b33565b60405180910390fd5b600060026000838152602001908152602001600020905080600301544211610b3a576040517f08c379a0000000000000000000000000000000000000000000000000000000008152600401610b3190611c77565b60405180910390fd5b8060060160019054906101000a900460ff1615610b8c576040517f08c379a0000000000000000000000000000000000000000000000000000000008152600401610b8390611ce3565b60405180910390fd5b60008080600090505b8360070180549050811015610c94576000846007018281548110610bbc57610bbb611ab8565b5b9060005260206000200160009054906101000a900473ffffffffffffffffffffffffffffffffffffffff169050838560080160008373ffffffffffffffffffffffffffffffffffffffff1673ffffffffffffffffffffffffffffffffffffffff168152602001908152602001600020600101541115610c80578460080160008273ffffffffffffffffffffffffffffffffffffffff1673ffffffffffffffffffffffffffffffffffffffff1681526020019081526020016000206001015493508092505b508080610c8c90611d03565b915050610b95565b5060018360060160016101000a81548160ff02191690831515021790555060028360060160006101000a81548160ff02191690836002811115610cda57610cd9611463565b5b0217905550808360060160026101000a81548173ffffffffffffffffffffffffffffffffffffffff021916908373ffffffffffffffffffffffffffffffffffffffff160217905550837f04a4eb297354a4e30fd9bdd4446e0f36052abbb4c6d788525858617b7d2464c682604051610d529190611343565b60405180910390a250505050565b60015481565b606080600080600080600080600080600080600260008e815260200190815260200160002090508060000181600101826002015483600301548460040160009054906101000a900460ff168560040160019054906101000a900460ff1686600501548760060160009054906101000a900460ff168860060160019054906101000a900460ff168960060160029054906101000a900473ffffffffffffffffffffffffffffffffffffffff168a600701805490508a8054610e2590611d7a565b80601f0160208091040260200160405190810160405280929190818152602001828054610e5190611d7a565b8015610e9e5780601f10610e7357610100808354040283529160200191610e9e565b820191906000526020600020905b815481529060010190602001808311610e8157829003601f168201915b50505050509a50898054610eb190611d7a565b80601f0160208091040260200160405190810160405280929190818152602001828054610edd90611d7a565b8015610f2a5780601f10610eff57610100808354040283529160200191610f2a565b820191906000526020600020905b815481529060010190602001808311610f0d57829003601f168201915b505050505099509b509b509b509b509b509b509b509b509b509b509b505091939597999b90929496989a50565b60008060009054906101000a900473ffffffffffffffffffffffffffffffffffffffff1673ffffffffffffffffffffffffffffffffffffffff163373ffffffffffffffffffffffffffffffffffffffff1614610fe8576040517f08c379a0000000000000000000000000000000000000000000000000000000008152600401610fdf90611b33565b60405180910390fd5b84861061102a576040517f08c379a000000000000000000000000000000000000000000000000000000000815260040161102190611df7565b60405180910390fd5b6001600081548092919061103d90611d03565b9190505550600060026000600154815260200190815260200160002090508881600001908161106c9190611fc3565b508781600101908161107e9190611fc3565b50868160020181905550858160030181905550848160040160006101000a81548160ff021916908360048111156110b8576110b7611463565b5b0217905550838160040160016101000a81548160ff021916908360038111156110e4576110e3611463565b5b021790555082816005018190555060008160060160006101000a81548160ff0219169083600281111561111a57611119611463565b5b021790555060008160060160016101000a81548160ff0219169083151502179055506001547f52be7c4e77b4de76b7607d621492061fe13b58597e72dfb5e51ab8f6187ed1418a60405161116e9190612095565b60405180910390a2600154915050979650505050505050565b60008054906101000a900473ffffffffffffffffffffffffffffffffffffffff1681565b6000604051905090565b600080fd5b600080fd5b6000819050919050565b6111d2816111bf565b81146111dd57600080fd5b50565b6000813590506111ef816111c9565b92915050565b600073ffffffffffffffffffffffffffffffffffffffff82169050919050565b6000611220826111f5565b9050919050565b61123081611215565b811461123b57600080fd5b50565b60008135905061124d81611227565b92915050565b6000806040838503121561126a576112696111b5565b5b6000611278858286016111e0565b92505060206112898582860161123e565b9150509250929050565b600080604083850312156112aa576112a96111b5565b5b60006112b8858286016111e0565b92505060206112c9858286016111e0565b9150509250929050565b6112dc81611215565b82525050565b6112eb816111bf565b82525050565b60008115159050919050565b611306816112f1565b82525050565b600060608201905061132160008301866112d3565b61132e60208301856112e2565b61133b60408301846112fd565b949350505050565b600060208201905061135860008301846112d3565b92915050565b600060208284031215611374576113736111b5565b5b60006113828482850161123e565b91505092915050565b6000602082840312156113a1576113a06111b5565b5b60006113af848285016111e0565b91505092915050565b60006020820190506113cd60008301846112e2565b92915050565b600081519050919050565b600082825260208201905092915050565b60005b8381101561140d5780820151818401526020810190506113f2565b60008484015250505050565b6000601f19601f8301169050919050565b6000611435826113d3565b61143f81856113de565b935061144f8185602086016113ef565b61145881611419565b840191505092915050565b7f4e487b7100000000000000000000000000000000000000000000000000000000600052602160045260246000fd5b600581106114a3576114a2611463565b5b50565b60008190506114b482611492565b919050565b60006114c4826114a6565b9050919050565b6114d4816114b9565b82525050565b600481106114eb576114ea611463565b5b50565b60008190506114fc826114da565b919050565b600061150c826114ee565b9050919050565b61151c81611501565b82525050565b6003811061153357611532611463565b5b50565b600081905061154482611522565b919050565b600061155482611536565b9050919050565b61156481611549565b82525050565b6000610160820190508181036000830152611585818e61142a565b90508181036020830152611599818d61142a565b90506115a8604083018c6112e2565b6115b5606083018b6112e2565b6115c2608083018a6114cb565b6115cf60a0830189611513565b6115dc60c08301886112e2565b6115e960e083018761155b565b6115f76101008301866112fd565b6116056101208301856112d3565b6116136101408301846112e2565b9c9b505050505050505050505050565b600080fd5b600080fd5b7f4e487b7100000000000000000000000000000000000000000000000000000000600052604160045260246000fd5b61166582611419565b810181811067ffffffffffffffff821117156116845761168361162d565b5b80604052505050565b60006116976111ab565b90506116a3828261165c565b919050565b600067ffffffffffffffff8211156116c3576116c261162d565b5b6116cc82611419565b9050602081019050919050565b82818337600083830152505050565b60006116fb6116f6846116a8565b61168d565b90508281526020810184848401111561171757611716611628565b5b6117228482856116d9565b509392505050565b600082601f83011261173f5761173e611623565b5b813561174f8482602086016116e8565b91505092915050565b6005811061176557600080fd5b50565b60008135905061177781611758565b92915050565b6004811061178a57600080fd5b50565b60008135905061179c8161177d565b92915050565b600080600080600080600060e0888a0312156117c1576117c06111b5565b5b600088013567ffffffffffffffff8111156117df576117de6111ba565b5b6117eb8a828b0161172a565b975050602088013567ffffffffffffffff81111561180c5761180b6111ba565b5b6118188a828b0161172a565b96505060406118298a828b016111e0565b955050606061183a8a828b016111e0565b945050608061184b8a828b01611768565b93505060a061185c8a828b0161178d565b92505060c061186d8a828b016111e0565b91505092959891949750929550565b7f456c656374696f6e206e6f742061637469766500000000000000000000000000600082015250565b60006118b26013836113de565b91506118bd8261187c565b602082019050919050565b600060208201905081810360008301526118e1816118a5565b9050919050565b7f416c726561647920766f74656400000000000000000000000000000000000000600082015250565b600061191e600d836113de565b9150611929826118e8565b602082019050919050565b6000602082019050818103600083015261194d81611911565b9050919050565b7f496e76616c69642063616e646964617465000000000000000000000000000000600082015250565b600061198a6011836113de565b915061199582611954565b602082019050919050565b600060208201905081810360008301526119b98161197d565b9050919050565b7f4e487b7100000000000000000000000000000000000000000000000000000000600052601160045260246000fd5b60006119fa826111bf565b9150611a05836111bf565b9250828201905080821115611a1d57611a1c6119c0565b5b92915050565b6000604082019050611a3860008301856112d3565b611a4560208301846112d3565b9392505050565b7f496e76616c69642063616e64696461746520696e646578000000000000000000600082015250565b6000611a826017836113de565b9150611a8d82611a4c565b602082019050919050565b60006020820190508181036000830152611ab181611a75565b9050919050565b7f4e487b7100000000000000000000000000000000000000000000000000000000600052603260045260246000fd5b7f4f6e6c792061646d696e2063616e2063616c6c00000000000000000000000000600082015250565b6000611b1d6013836113de565b9150611b2882611ae7565b602082019050919050565b60006020820190508181036000830152611b4c81611b10565b9050919050565b7f416c726561647920726567697374657265640000000000000000000000000000600082015250565b6000611b896012836113de565b9150611b9482611b53565b602082019050919050565b60006020820190508181036000830152611bb881611b7c565b9050919050565b7f496e76616c696420616464726573730000000000000000000000000000000000600082015250565b6000611bf5600f836113de565b9150611c0082611bbf565b602082019050919050565b60006020820190508181036000830152611c2481611be8565b9050919050565b7f456c656374696f6e206e6f742079657420656e64656400000000000000000000600082015250565b6000611c616016836113de565b9150611c6c82611c2b565b602082019050919050565b60006020820190508181036000830152611c9081611c54565b9050919050565b7f416c7265616479206465636c6172656400000000000000000000000000000000600082015250565b6000611ccd6010836113de565b9150611cd882611c97565b602082019050919050565b60006020820190508181036000830152611cfc81611cc0565b9050919050565b6000611d0e826111bf565b91507fffffffffffffffffffffffffffffffffffffffffffffffffffffffffffffffff8203611d4057611d3f6119c0565b5b600182019050919050565b7f4e487b7100000000000000000000000000000000000000000000000000000000600052602260045260246000fd5b60006002820490506001821680611d9257607f821691505b602082108103611da557611da4611d4b565b5b50919050565b7f5374617274206d757374206265206265666f726520656e640000000000000000600082015250565b6000611de16018836113de565b9150611dec82611dab565b602082019050919050565b60006020820190508181036000830152611e1081611dd4565b9050919050565b60008190508160005260206000209050919050565b60006020601f8301049050919050565b600082821b905092915050565b600060088302611e797fffffffffffffffffffffffffffffffffffffffffffffffffffffffffffffffff82611e3c565b611e838683611e3c565b95508019841693508086168417925050509392505050565b6000819050919050565b6000611ec0611ebb611eb6846111bf565b611e9b565b6111bf565b9050919050565b6000819050919050565b611eda83611ea5565b611eee611ee682611ec7565b848454611e49565b825550505050565b600090565b611f03611ef6565b611f0e818484611ed1565b505050565b5b81811015611f3257611f27600082611efb565b600181019050611f14565b5050565b601f821115611f7757611f4881611e17565b611f5184611e2c565b81016020851015611f60578190505b611f74611f6c85611e2c565b830182611f13565b50505b505050565b600082821c905092915050565b6000611f9a60001984600802611f7c565b1980831691505092915050565b6000611fb38383611f89565b9150826002028217905092915050565b611fcc826113d3565b67ffffffffffffffff811115611fe557611fe461162d565b5b611fef8254611d7a565b611ffa828285611f36565b600060209050601f83116001811461202d576000841561201b578287015190505b6120258582611fa7565b86555061208d565b601f19841661203b86611e17565b60005b828110156120635784890151825560018201915060208501945060208101905061203e565b86831015612080578489015161207c601f891682611f89565b8355505b6001600288020188555050505b505050505050565b600060208201905081810360008301526120af818461142a565b90509291505056fea26469706673582212200fcfd950fae43b3a30d69474eb223609dcab4fd1a0d4624b7434a09beb9f24e264736f6c63430008140033",
  "linkReferences": {},
  "deployedLinkReferences": {}
}